:020000040800F2
:1000000048070020450100083B140008951200082D
:1000100039140008070900086F17000800000000E5
:100020000000000000000000000000000F170008A2
:1000300009090008000000000D170008111700084A
:100040005F0100085F0100085F0100085F01000810
:100050005F0100085F0100085F0100085F01000800
:100060005F0100085F0100085F0100085F010008F0
:100070005F0100085F0100085F0100085F010008E0
:100080005F0100085F0100085F0100085F010008D0
:100090005F0100085F0100085F0100085F010008C0
:1000A0005F0100085F0100085F0100085F010008B0
:1000B0005F0100085F0100085F0100085F010008A0
:1000C0005F0100085F0100085F0100085F01000890
:1000D0005F0100085F0100085F0100085F01000880
:1000E0005F0100085F0100085F0100085F01000870
:1000F0005F0100085F0100085F0100085F01000860
:100100005F0100085F0100085F0100085F0100084F
:100110005F0100085F0100085F0100085F0100083F
:100120005F0100085F0100085F0100085F0100082F
:10013000DFF80CD000F0A6FB00480047952000082F
:10014000480700200648804706480047FEE7FEE7CC
:10015000FEE7FEE7FEE7FEE7FEE7FEE7FEE7FEE777
:100160006D17000831010008202A04DB203A21FA2B
:1001700002F00021704721FA02F3D040C2F12002C0
:100180009140084319467047D2B201E000F8012BB4
:10019000491EFBD270470022F6E710B513460A4607
:1001A00004461946FFF7F0FF204610BDF0B480EA80
:1001B0000102D40F4200B2EB410F02D202460846C0
:1001C00011464A0042D0C30DDDB2C1F3C752AD1A89
:1001D000202D35DAC1F3160141F4000204B1524278
:1001E000C5F1200602FA06F12A411044B3EBD05FB4
:1001F00023D0C4B1012DA0EBC35009DCF0BC4FF0FB
:10020000004202EAC352DBB200F5000000F07EBA01
:10021000400000F1807000EBC350A0F1807040EA14
:10022000D170490009E0490841EAC071A0EBC35010
:1002300000F50000400800EBC350F0BC00F05DBAD0
:100240006142012202EB4101001BF6E7F0BC70475E
:1002500081F00041AAE780F00040A7E72DE9FE4FBA
:10026000804681EA0300C00F0C46009021F0004157
:1002700023F00045B8EB0200A94105D240462146D3
:1002800090461C460B46024623F00040104347D0E0
:10029000270DC7F30A00C3F30A510290401A0190D8
:1002A00040286BDAC3F3130040F4801B0098924699
:1002B00020B10023D2EB030A63EB0B0B01985946E4
:1002C000C0F14002504600F0F7F906460D46504690
:1002D0005946019A00F0FFF910EB08006141002433
:1002E00087EA115284EAE7731A4340D0009A62B356
:1002F000019A012A4FEA075215DC001B61EB02014B
:100300004FF0004202EA0752CDE90042001C41F5DD
:10031000801132462B4600F036FA03B0BDE8F08F6C
:1003200040462146F9E7001B61EB0201001C41F544
:10033000801300185B412018A2F5001747EB03015A
:1003400040EAD570B6196D4111E06D084FEA3606E6
:1003500045EAC0754FEA0752001B61EB0201001C21
:1003600041F5801149084FEA3000001951413246E9
:100370002B4603B0BDE8F04F00F0F6B9009801221B
:1003800040000023D0EB020263EBE07300982146AB
:100390004FEAE074B8EB000061EB0401E9E783F099
:1003A00000435BE781F0004158E72DE9FE4F81EA09
:1003B000030404F0004421F0004100944FF0000BCE
:1003C00023F0004350EA01045ED052EA03045BD0FC
:1003D000C3F30A54C1F30A552C44A4F2F334019434
:1003E000A0FB0254C1F3130141F48011C3F31303C2
:1003F00043F4801301FB024400FB034E840A970A76
:1004000044EA815447EA8357A4FB076802958D0AA2
:1004100005FB07854FEA932C04FB0C542705029D2E
:100420004FEA065847EA1637B5EB08056EEB070C9E
:10043000870E920E47EA811742EA8312A7FB020158
:10044000B6EB0B0164EB00042B0D43EA0C335E1892
:1004500044EB1C50DA465146E7FB0201C5F3130496
:100460004FEA0B3343EA14534FEA0432019C43EA48
:100470000603A4F10C040294009CCDE900B400F042
:1004800082F903B0BDE8F08F00200146F9E72DE9BD
:10049000F04D81EA030404F0004B21F000451446BE
:1004A0004FF0000A23F0004150EA050220D054EA40
:1004B00001021DD0C5F30A570246C5F31303C1F369
:1004C0001300C1F30A5640F4801543F48013A7EBE0
:1004D0000608101BD64608F2FD3873EB050002D360
:1004E00008F1010801E092185B41B8F1000F03DA4E
:1004F00000200146BDE8F08D00204FF48011064633
:1005000084460EE0171B73EB050705D3121B63EB44
:10051000050306434CEA010C49084FEA30009218E3
:100520005B4150EA0107EDD152EA030012D082EAA2
:10053000040083EA0501084305D0101BAB4106D235
:100540000122002306E000224FF0004302E06FF09A
:10055000010253101AEB06004CEB085110EB0A0095
:1005600041EB0B01BDE8F04D00F0FEB870B521F095
:10057000004303430CD0C1F30A550024D5EB040516
:1005800064EB0403D617AD1AB34102DB0020014629
:1005900070BD201841EB025170BDC1F30A5210B575
:1005A000C1F3130140F2FF3341F480119A4201DAA2
:1005B000002010BD40F233439A42A2F2334203DCE2
:1005C0005242FFF7D1FD10BD904010BD00F0004237
:1005D00030F000400AD0C10D01F56071C0F3160083
:1005E00042EA0151C208400711437047002001460A
:1005F000704701F0004330B421F0004150EA01029D
:1006000006D00A0DA2F56072C1F31301002A02DCC4
:1006100030BC00207047440F44EAC104C100E01818
:1006200030BC00EBC25000F068B830B50B46014654
:1006300000202022012409E021FA02F59D4205D381
:1006400003FA02F5491B04FA02F52844151EA2F12B
:100650000102F1DC30BD2DE9F05F05460020924635
:100660009B4688460646814640241BE02846414674
:1006700047462246FFF778FD53465A46C01A914135
:1006800010D311461846224600F016F82D1A67EBD3
:1006900001084F4622460120002100F00DF817EB1B
:1006A00000094E41201EA4F10104DFDC484631461A
:1006B0002A464346BDE8F09F202A04DB203A00FA90
:1006C00002F1002070479140C2F1200320FA03F3A9
:1006D000194390407047202A06DBCB17203A41FA95
:1006E00002F043EAE07306E041FA02F3D040C2F1BF
:1006F000200291400843194670470029A8BF70475F
:10070000401C490008BF20F00100704710B4B0FA47
:1007100080FC00FA0CF050EA010404BF10BC7047E2
:1007200049B1CCF1200421FA04F411FA0CF118BFFC
:10073000012121430843A3EB0C01CB1D4FEA0061CB
:100740004FEA102042BF002010BC704700EBC3509E
:1007500010440029A4BF10BC7047401C490008BFCA
:1007600020F0010010BC704710B5141E73F1000496
:1007700008DA401C41F1000192185B411A4301D193
:1007800020F0010010BD2DE9F04D92469B4611B1BD
:10079000B1FA81F202E0B0FA80F220329046FFF71F
:1007A0008BFF04460F4640EA0A0041EA0B0153461C
:1007B0005A46084313D0114653EA010019D0C8F134
:1007C00040025046FFF7D0FC05460E4650465946BB
:1007D0004246FFF771FF084305D0012004E02046A0
:1007E0003946BDE8F08D0020054346EAE0762C430B
:1007F00037430A986305E40AA0EB08000022FD0ACB
:1008000044EA47540A3002D500200146E9E70105D1
:1008100010196941DDE9084500196941BDE8F04D4D
:10082000A2E7C1F30A52C1F3130140F2FF3341F4CE
:1008300080119A4202DA00200146704740F23343A9
:100840009A42A2F2334202DC5242FFF78DBCFFF71C
:1008500033BF000030B5041E71F1000404DB4FF01B
:100860000044404264EB0101141E73F1000405DBF7
:100870001C464FF00043524263EB0403994208BF09
:10088000904230BD064C074D06E0E06840F00103A1
:1008900094E8070098471034AC42F6D3FFF74CFCBD
:1008A000042800082428000870B58D1810F8014BA2
:1008B00014F0030201D110F8012B231106D110F816
:1008C000013B03E010F8016B01F8016B521EF9D1F6
:1008D000ABB110F8012B04F00C048A1A0C2C03D0D5
:1008E000A2EB84129B1C08E010F8014BA2EB04223F
:1008F000F8E712F8014B01F8014B5B1EF9D5A9424C
:10090000D4D3002070BDFEE77047704770B54379BF
:10091000012B20D00125457102230371066834683C
:1009200002F0100340F6FE729A409443D1E9002190
:100930000A439A402243326002681468C0219940F9
:100940008C431460026813688B43136005710021A7
:100950004171084670BD022070BD70B5040003D01F
:100960002079002510B105E0012070BD6571204699
:1009700000F008F80220207125610120207100207C
:1009800070BD000000B585B0002100910191029179
:10099000039100680E49884218D10E48C16941F0A0
:1009A0000051C161C16901F000510491816941F0B8
:1009B000040181618069694600F004000490102000
:1009C000009003200190044800F056F805B000BDE7
:1009D00000740040001002400008014018B504688F
:1009E00000940068104421B114300090036000208E
:1009F00018BD0830F9E770B54279012A1ED00122EE
:100A00004271022303710468266801F0100302FAA0
:100A100003F52E4326600029016811D00C6804F408
:100A200070153C249C40A54203D14B6843F002035F
:100A30004B60027100214171084670BD022070BDFB
:100A40000B68C3F383030F2BF3D14B6843F001030F
:100A5000EEE7000070B5044600F01CF90546601C86
:100A600002D004480078044400F014F9401BA0426E
:100A7000FAD370BD180000202DE9F84FDFF8C891B7
:100A8000002409F1040A0AF1040B23460F270BF195
:100A9000040ED1E00125A54006EA0502AA4276D15E
:100AA000DFF8A8C14E68A6EB0C0866452BD00DDC1C
:100AB000032E34D005DC36B3012E19D0022E2FD1EF
:100AC0001BE0112E16D0122E2AD119E0B8F5881F7E
:100AD00019D006DCB8F5803F15D0B8F5801F1FD1BE
:100AE00011E0B8F5001F0ED0B8F5041F18D10AE0C8
:100AF000CB6815E0CB681B1D12E0CB6808330FE014
:100B0000CB680C330CE08B682BB1012B4FF0080342
:100B100003D0456104E0042302E0056100E0002306
:100B2000FF2A01D8064601E000F104064FEA8405D9
:100B300001D9A5F12005D6F8008007FA05FC28EABE
:100B40000C0803FA05F548EA0508C6F800804D6868
:100B5000ED0070D53E4DAE6946F00106AE61AD695F
:100B600024F0030605F0010500953A4D06EB050C4F
:100B7000DCF80850A607360F07FA06F825EA08053C
:100B8000DFF8D480404503D14FF0000825E052E063
:100B9000DFF8C880404502D14FF001081DE0DFF8C2
:100BA000C080404502D14FF0020816E0DFF8B48063
:100BB000404502D14FF003080FE0DFF8AC8040451C
:100BC00002D14FF0040808E0DFF8A080404502D1D0
:100BD0004FF0050801E04FF0060808FA06F848EA69
:100BE0000508CCF808804D68D9F80060ED034D4643
:100BF00001D5164300E096432E604D68DAF8006098
:100C0000AD03554601D5164300E096432E604D686E
:100C1000DBF80060ED025D4601D5164300E0964327
:100C20002E604D68DEF80060AD02754601D51643B2
:100C300000E096432E60641C0A681646E2407FF48A
:100C400029AFBDE8F88F000000040140000011103A
:100C5000001002400000014000080140000C01406B
:100C6000001001400014014000180140001C014028
:100C70008068084000D001207047C26821EA020362
:100C80000A4043EA0241016170470AB101617047BD
:100C90000904FBE701488068704700001800002045
:100CA0000248816802781144816070471800002072
:100CB000074810B5016841F010010160032000F001
:100CC00067F8002000F006F800F024F8002010BDBE
:100CD0000020024070B50D4D04464FF47A7128781B
:100CE000B1FBF0F00A490968B1FBF0F000F0BEFA80
:100CF00048B9102C07D200222146501E00F028F8D7
:100D000000206C6070BD012070BD00001800002044
:100D1000240000200C4808B5816941F0010181617F
:100D2000816901F001010091C16941F08051C16107
:100D3000C06900F0805000900448416821F0E061F3
:100D400041F00071416008BD001002400000014008
:100D5000F0B40E4B1B680C46C3F30223C3F1070526
:100D6000042D00D90425191D072901D2002300E014
:100D7000DB1E012606FA05F1491E214099409E40DE
:100D8000761E16403143F0BC00F006BD0CED00E0CD
:100D9000064900F0070208684FF6FF03184040EAD2
:100DA0000220034A10430860704700000CED00E089
:100DB0000000FA052DE9F0470F46050061D0434ECB
:100DC000306800F00700B84209D2306820F0070010
:100DD00038433060306800F00700B84251D12868CD
:100DE0003B4C810712D5400703D5606840F4E060B2
:100DF00060602878000703D5606840F46050606048
:100E00006068A96820F0F000084360602878C00797
:100E100028D06868012810D02168022810D08907DE
:100E200000292EDA616821F0030101436160FFF7B8
:100E300031FF804641F288390DE021688903EFE7F0
:100E40008901EDE7FFF726FFA0EB0801494502D92C
:100E50000320BDE8F0876068696800F00C00B0EB23
:100E6000810FEFD1306800F00700B8420BD930682D
:100E700020F0070038433060306800F00700B842C7
:100E800001D00120E5E72878400705D56068E968CA
:100E900020F4E060084360602878000706D56068A9
:100EA000296920F4605040EAC100606000F018F841
:100EB0006168084AC1F30311515CC84006490860E3
:100EC00006480068FFF706FF0020C2E70020024046
:100ED00000100240CC250008240000201C00002047
:100EE00012A185B00FC98DE80F0014A0144A006844
:100EF00004905168134801F00C03042B10D0082B08
:100F00000ED1C1F38343C9031DF803000AD551680C
:100F100004AAC1F34041515C0A4A5043B0FBF1F0CE
:100F200005B0704708494843FAE70000020304058A
:100F3000060708090A0B0C0D0E0F10100102000025
:100F40000010024000127A0000093D002DE9F84F20
:100F5000040070D02078C04DC00749D06868C0F345
:100F60008100012807D06868C0F38100022809D1F8
:100F70006868C00306D52868800339D560680028F2
:100F8000E7D035E06068B0F5803F0BD010B1B0F528
:100F9000A02F11D0286820F480302860286820F421
:100FA000802002E0286840F480302860606890B1BA
:100FB000FFF770FE06460AE0286840F480202860AB
:100FC000F0E700BFFFF766FE801B642873D828682F
:100FD0008003F7D50CE0FFF75DFE064605E000BF95
:100FE000FFF758FE801B6428F0D828688003F7D4E8
:100FF00020789A4E80074FF001094FF0000839D54C
:10100000686810F00C0F07D06868C0F381000228F0
:1010100009D16868C00306D42868800714D5206900
:10102000012808D110E02069B0B1C6F80090FFF7A0
:1010300031FE074605E00AE1FFF72CFEC01B02283F
:10104000C4D828688007F7D52868616920F0F800BF
:1010500040EAC10028600DE0C6F80080FFF71AFEE4
:10106000074604E0FFF716FEC01B022823D82868B5
:101070008007F7D4207800072CD57948A169D9B129
:10108000C0F80090FFF706FE074604E0FFF702FEF7
:10109000C01B02280FD8686A8007F7D571484FF443
:1010A000FA510068B0FBF1F0009000BF0098411EBB
:1010B0000091FAD20EE080E0C0F80080FFF7EAFD70
:1010C000074604E0FFF7E6FDC01B022875D8686AF2
:1010D0008007F7D42078400760D5E8690027C00072
:1010E00008D4E86940F08050E861E869012700F021
:1010F000805000905C480168C90513D4016883469C
:1011000041F480710160FFF7C5FD824606E000BF33
:10111000FFF7C0FDA0EB0A0064284ED8DBF8000002
:10112000C005F5D5E06801280AD008B1052813D01C
:10113000286A20F001002862286A20F0040002E0FA
:10114000286A40F001002862E06841F2883B98B1CB
:10115000FFF7A0FD82460BE0286A40F004002862F9
:10116000EEE700BFFFF796FDA0EB0A0159455AD8FC
:10117000286A8007F6D50CE0FFF78CFD824605E073
:10118000FFF788FDA0EB0A0159454CD8286A800773
:10119000F6D41FB1E86920F08050E861E06988B3B7
:1011A0006968C1F38101022944D00228C6F8608031
:1011B00004D0FFF76FFD044638E034E0FFF76AFD26
:1011C000074604E0FFF766FDC01B02282BD82868FD
:1011D0008001F7D4206AB0F5803F05D16868A16826
:1011E00020F4003008436860D4E9080108436968C6
:1011F00021F4741108436860C6F86090FFF74AFD57
:10120000044606E025E000BFFFF744FD001B02286E
:1012100009D828688001F7D51BE000BFFFF73AFD29
:10122000001B022802D90320BDE8F88F286880013E
:10123000F4D40EE00128F7D06868226A00F4803107
:10124000914204D1616A00F47010884201D00120FB
:10125000EAE70020E8E700000010024000004242F8
:1012600080044242240000200070004010B5401E5F
:10127000B0F1807F01D3012010BD4FF0E024606108
:101280000F21601700F088FA0020A061072020617C
:10129000002010BDFEE7000070B520211A48FFF7BE
:1012A000E7FC1A4901261A4C002570B125600D6033
:1012B000C4F808504FF400411648FFF7D9FC16490E
:1012C00090B165600D60E56070BD2068401C2060D5
:1012D000202807DBA06808B12560EBE70E60A66058
:1012E0002560E7E70D60E5E76068401C6060202846
:1012F00007DBE06808B1656070BD0E60E6606560A0
:1013000070BD0D6070BD00000010014000000020A5
:101310000800002000080140040000201CB5002443
:101320000C4900940A48019408600846FFF715FB31
:1013300008B1FFF7EAFA00940022694605480194D3
:10134000FFF7E4FA002801D0FFF7DFFA1CBD000028
:1013500000740040300300202DE9F04786B00024DF
:1013600031480094019402940394816941F0200172
:101370008161816901F020010491816941F00401DA
:101380008161816901F004010491816941F01001DA
:1013900081618069DFF8949000F010004FF4F475DB
:1013A0000490002229464846FFF76FFCDFF8808052
:1013B0004FF46477002239464046FFF766FCDFF8B9
:1013C00074A0002204215046FFF75FFC009502261E
:1013D00001250396CDE9015469464846FFF74CFBC9
:1013E00000970396CDE9015469464046FFF744FB58
:1013F00020208DE8310069464046FFF73DFBE803B9
:10140000CDE90004694648460294FFF735FB042005
:10141000CDE90005CDE9024669465046FFF72CFBB1
:1014200006B0BDE8F087000000100240000801404F
:101430000010014000140140FEE7704770B5002421
:1014400004F1B000C0B2002100F024F900210846E8
:1014500000F020F90021102000F01CF900250121E6
:10146000002000F017F96D1CEDB2802DF7D3641C3D
:10147000E4B2082CE4D370BD10B5494C01228021A0
:101480002046FFF702FC6420FFF7E4FA00228021E7
:101490002046FFF7FAFBC820FFF7DCFA0122802183
:1014A0002046FFF7F2FB0021AE2000F0F3F8002108
:1014B000084600F0EFF80021102000F0EBF80021C2
:1014C000402000F0E7F80021812000F0E3F800213F
:1014D000CF2000F0DFF80021A12000F0DBF8002190
:1014E000C82000F0D7F80021A62000F0D3F8002192
:1014F000A82000F0CFF800213F2000F0CBF8002119
:10150000D32000F0C7F80021084600F0C3F80021FE
:10151000D52000F0BFF80021802000F0BBF80021AA
:10152000D92000F0B7F80021F12000F0B3F8002135
:10153000DA2000F0AFF80021122000F0ABF8002113
:10154000DB2000F0A7F80021402000F0A3F80021E4
:10155000202000F09FF80021022000F09BF80021DD
:101560008D2000F097F80021142000F093F800215E
:10157000A42000F08FF80021A62000F08BF80021B5
:10158000AF2000F087F80021AF2000F083F8FFF7CC
:1015900055FF0021BDE81040084600F003B80000E8
:1015A0000008014010B50446B031C8B2002100F077
:1015B00071F8102040EA1410002100F06BF804F0DC
:1015C0000F00BDE8104040F00100002100F062B8BB
:1015D0002DE9F04115460E460746FFF7E3FF0F4899
:1015E000002400EB85150121285D00F053F8641CF0
:1015F000E4B2102CF7D3761CF1B23846FFF7D2FFD5
:1016000000242819012190F8200000F043F8641C00
:10161000E4B2102CF5D3BDE8F08100002E000020CC
:1016200070B5203A0024D5B27F2802D90020891C49
:10163000C9B2491CC9B2FFF7B5FF074905EB450020
:1016400001EB40050121285D00F024F8641CE4B2A0
:10165000062CF7D370BD0000DC2500082DE9F04111
:1016600017460E46044600250CE031462046FFF79B
:10167000D7FF0834E4B2782C02D90024B61CF6B2A5
:101680006D1CEDB27A5D002AEFD1BDE8F0410A2071
:10169000FFF7E0B92DE9F0411A4F054609B10122E3
:1016A00000E0002210213846FFF7EFFA164E002224
:1016B00008213046FFF7E9FA0024002220213046B5
:1016C000FFF7E3FA280601D5012200E000224021BD
:1016D0003046FFF7DAFA012220213046FFF7D5FA2B
:1016E0006806641C050EE4B2082CE6D3012208212A
:1016F0003046FFF7CAFA3846BDE8F0410122102112
:10170000FFF7C3BA0010014000080140704770475E
:1017100010B5FFF7C1FDBDE81040FFF7C1BA30B505
:101720008FB028216846FEF736FD14210AA8FEF77F
:1017300032FD01210804CDE90010002402940225A5
:101740000491CDE907504FF4E01009906846FFF787
:10175000FDFB0F20CDE90A056802CDE90C4002210E
:101760000AA80E94FFF726FB0FB030BD7047FEE7C6
:101770000FB4084B10B504A902AA039800F0EEF8C4
:10178000044602A9002000F080FC204610BC5DF851
:1017900014FB00008B2000080907090E002804DB59
:1017A00000F1E02080F80014704700F00F0000F115
:1017B000E02080F8141D704702E008C8121F08C11D
:1017C000002AFAD170477047002001E001C1121FC2
:1017D000002AFBD1704700002DE9FF5F82B0002195
:1017E000DDE90430020DDDF840B0034318D044F6C3
:1017F0001050A2F2FF3242431514119801281FD055
:10180000A5EB0B00401C5FEA000A4FF000064E4FAC
:10181000DFF83891B046504615D5CAF1000413E000
:10182000119801244AA3012801D16FEA0B01029803
:10183000119AC0E90031C0E9024206B0BDE8F09F4C
:10184000CBF10000DFE704460021404A491842EB93
:101850000450CDE9001012E0E00707D032463B46C5
:1018600040464946FEF7A1FD8046894632463B4642
:1018700010461946FEF799FD06460F466410002CE7
:10188000EAD1DDE90401DDE90023BAF1000F06DA4F
:10189000FEF78BFD42464B46FEF787FD05E0FEF75F
:1018A000F6FD42464B46FEF7F2FD04460E46002288
:1018B000284BFEF7CFFF03D84FF0FF30014607E07B
:1018C0000022254B20463146FEF7C8FCFEF7A9FF53
:1018D000102409E0002C0ADB0A220023FEF7BBFEDD
:1018E000039B30321A55641E50EA0102F2D1641C87
:1018F000039AC4F111031444119A012A03D001225E
:1019000008430DD10AE0084304D000204FF0110B2A
:10191000119072E7A3EB0B056D1E0DE05B4504DD36
:101920004FF0000205F1010504E003DA4FF0000278
:10193000A5F10105002AECD002981199C0E9023105
:10194000C0E9004579E70000000014400000F03FC6
:10195000300000000000F0430000E03F2DE9FF4FA1
:1019600095B09B468946064600250FE2252877D18B
:1019700000242746F84A0121059400E0044316F8A4
:10198000013F203B01FA03F01042F7D130782A28BA
:1019900011D06FF02F033078A0F13002092A16D849
:1019A000059A44F0020402EB820203EB4202104467
:1019B000761C0590EFE759F8042B0592002A03DA0C
:1019C000504244F40054059044F00204761C3078F0
:1019D0002E2816D116F8010F44F004042A280DD041
:1019E0006FF02F023078A0F13003092B09D807EBF4
:1019F000870302EB4303C718761CF3E759F8047B0F
:101A0000761C30786C280FD006DC4C2817D068285C
:101A10000DD06A2814D104E0742810D07A280FD190
:101A20000DE044F400140AE044F4801401E044F4AE
:101A300040147278824202D104F58014761C761C20
:101A4000307866280BD013DC582877D009DC0028C2
:101A500075D04528F6D04628F4D047281AD19DE104
:101A600018E0632835D0642879D0652812D195E133
:101A7000702873D008DC6728F1D069286FD06E28F1
:101A80000DD06F2806D1B5E073282CD0752875D0FD
:101A9000782874D05A46179990476D1C75E1C4F3A5
:101AA0000250022809D003280DD0D9F800100428CC
:101AB0000DD00D6009F1040967E1D9F80010EA17AB
:101AC000C1E90052F6E7D9F800100D80F2E70D7079
:101AD000F0E719F8041B8DF8001000208DF80100C4
:101AE000EA46012003E059F804AB4FF0FF306107EC
:101AF0004FF0000102D40DE008F101018846B9421F
:101B00000FDA8045F8DB1AF808100029F4D108E054
:101B100008F1010188468142FADB1AF80810002911
:101B2000F6D105985B46A0EB080721463846179A80
:101B300000F094FA284400EB080507E04DE029E1A5
:101B40000DE01AF8010B5A4617999047B8F10108B1
:101B5000F7D25B4621463846179A13E142E00A2243
:101B60000092C4F302524FF0000A022A08D059F83A
:101B700004CB032A4FEAEC710AD00DE029E02AE0F9
:101B800009F1070121F00702F2E802C1914609E0DC
:101B90000FFA8CFC4FEAEC71042A03D14FFA8CFC4B
:101BA0004FEAEC71002907DA0A460021DCF1000C4B
:101BB00061EB02012D2202E0220504D52B228DF8D3
:101BC0000420012203E0E20701D02022F7E790463B
:101BD00059E00A2102E010220DE010214FF0000A26
:101BE00000910BE010224FF0000A44F00404082793
:101BF000009203E008224FF0000A0092C4F3025260
:101C0000022A05D059F804CB0021032A08D009E0A4
:101C100009F1070121F00702F2E802C1914605E04F
:101C20001FFA8CFC042A01D10CF0FF0C4FF00008C5
:101C3000220728D5702806D0009B83F0100353EAB2
:101C40000A0305D00EE040228DF80420012208E0AE
:101C50005CEA010206D030228DF804208DF80500E0
:101C600002229046009B83F0080353EA0A030AD13C
:101C70005CEA010201D1620705D530228DF804200B
:101C80004FF001087F1E582804D034A003900EA8FE
:101C900002900DE036A0F9E753466046009AFEF741
:101CA000DAFC84460398825C0298401E029002701F
:101CB0005CEA0100F0D1029806A9081A00F1200A96
:101CC000600702D524F4803400E00127574502DD87
:101CD000A7EB0A0000E0002000EB0A010090059845
:101CE0004144401A0590E00306D45B462146179A0A
:101CF000059800F0B3F90544002706E001A85A460C
:101D0000C05D179990476D1C7F1C4745F6DBE003CB
:101D10000CD55B462146179A059800F09FF90544BB
:101D200004E030205A46179990476D1C0099481ED0
:101D300000900029F5DC08E0029802995A460078E4
:101D4000491C0291179990476D1CBAF10001AAF144
:101D5000010AF1DC65E1000009280100303132336D
:101D600034353637383961626364656600000000D7
:101D700030313233343536373839414243444546C1
:101D80000000000000F058F90544761C3078002867
:101D90007FF4ECAD19B02846BDE8F08F620700D49F
:101DA000062709F1070222F0070CFCE80223E146AE
:101DB00003F000485FEA080C02D00FF2702C0DE02F
:101DC0005FEA045C02D50FF2682C07E05FEAC47C8E
:101DD00002D00FF2602C01E0AFF2700C4FF0FF3830
:101DE00023F00043CDF850C065280CD006DC452810
:101DF00009D046281DD047283DD13DE0662818D09F
:101E000067287ED138E00021112F01DB112000E08E
:101E1000781CCDE9000106A90EA8FFF7DDFCDDE97D
:101E20000F010E9A03910021009207F1010A04911B
:101E30004DE04FF000400097CDE9011006A90EA833
:101E4000FFF7CAFCDDE90F0203920E9B11990022F5
:101E5000DDF80CA00093049211B9791C00EB010A83
:101E6000B7EB0A0004D4C0F1FF3007F1010A049077
:101E7000AAEB0700019044E0012F00DA01270021BE
:101E8000112F01DD112000E03846CDE9000106A93F
:101E90000EA8FFF7A1FCDDE90F010E9A03910021C6
:101EA00004910092BA4621070CD40399514500DAF7
:101EB0008A46BAF1010F05DD009AAAF10101515CD1
:101EC000302908D0B84202DA10F1040F06DA0121F5
:101ED000CDE9011015E0AAF10101E9E7002805DCD0
:101EE000049901440491AAEB000102E0411C514510
:101EF00000DD8A460499401A401C01904FF00040D2
:101F00000290200704D40198504501DBCDF80480ED
:101F100000208DF84F0002980DF14F07B0F1004FEF
:101F200025D02B200E9002984FF0020800280CDAE2
:101F3000404202902D200E9007E00A210298FEF701
:101F400074FB3031029007F8011DB8F10001A8F1CF
:101F50000108F2DC02980028EFD1791E0E98087073
:101F6000307800F0200040F0450007F8020D12A87C
:101F7000C01B00F107081498007800B1012000EBA5
:101F80000A01019801EBE07105984144401A401E96
:101F90000590E00306D45B462146179A059800F0A9
:101FA0005DF805441498007818B15A46179990477F
:101FB0006D1CE00324D55B462146179A059800F076
:101FC0004DF805441CE00498002807DBDDE9030117
:101FD000884203DD0098405C179901E01799302092
:101FE0005A469047049805F10105401C0490019859
:101FF000401E019004D12E205A46179990476D1C1F
:10200000BAF10001AAF1010ADDDC05E017F8010BC5
:102010005A46179990476D1CB8F10001A8F10108C4
:10202000F4DC5B462146179A0598ABE62D000000CC
:102030002B000000200000002DE9F041044600259F
:102040001E461746880404D405E039462020B047D0
:102050006D1C641EF9D52846BDE8F0812DE9F041DC
:10206000044600251E469046C80301D5302700E0EF
:102070002027880404D505E041463846B0476D1C4A
:10208000641EF9D52846BDE8F0810A68531C0B6030
:10209000107070474FF07E5A00245546FEF708FE38
:1020A000FFF73DFBFFF758F9FFF738F9FFF7E4F9C1
:1020B000FFF7C4F9002211461046FFF789FA012202
:1020C00000211220FFF784FA022200212420FFF7CA
:1020D0007FFA4EA203210020FFF7C0FA40F6B83085
:1020E000FEF7B8FCFFF7AAF900214BA20846FFF75C
:1020F000B5FA4CA201210F20FFF7B0FA4BA2022142
:102100000020FFF7ABFA4BA203210F20FFF7A6FA3E
:102110004BA204210020FFF7A1FA4CA205210F20B9
:10212000FFF79CFA0A2000F0DDF94FF4807B0122D2
:1021300059464948FEF7A9FDDFF820810122042114
:102140004046FEF7A2FDDFF818914FF080474E465B
:10215000D9F80000012827D1BC420ADA2046FEF750
:1021600035FA404A404BFEF779F8FEF742FA04464A
:102170000CE03E48854209DA4FF07C512846FEF7D4
:1021800015F805460146052000F042F9204600F00A
:1021900071F859463048FEF770FD6420FEF75AFC8E
:1021A00059462D48FEF769FD70680128CFD1BC4221
:1021B0000CDB55450ADD4FF07C512846FEF748F808
:1021C00005460146052000F0B9F80EE02848844293
:1021D0000ADB2046FEF7FAF9224A234BFEF7DFF826
:1021E000FEF707FA044600E00024204600F042F81B
:1021F000042146464046FEF740FD6420FEF72AFCD7
:1022000004213046FEF739FDA1E7000032303138B5
:1022100032333332303032004441435F766F6C7476
:102220003D000000302E3030560000004761696EDE
:102230003D00000030302E303020644200000000AD
:10224000583943313033533D0000000020312E30E7
:10225000306B204F686D0000000801400014014001
:10226000000000209A9999999999B93F000020415E
:10227000CDCCCC3D2DE9F041FEF7A8F94FF0663703
:102280000D4604463A461E4BFEF701F90C22FEF7B6
:102290006DF9FEF782F9064620462946194A1A4B7F
:1022A000FEF783F83A46194BFEF779F8FEF7A1F9E5
:1022B000074600211648FEF79EFB002233461146D2
:1022C0001348FEF78BFB22462B4612A11348FFF75B
:1022D0004FFA124A01210F20FFF7C0F93846FEF7E6
:1022E00075F902460D480B460AA12030FFF740FA67
:1022F000BDE8F041094A032120320F20FFF7AEB9B3
:1023000066660A400E2DB29DEF0744406676414056
:1023100030030020252E326600000000F00200206D
:10232000002107E000BF00BF022200BF521C482A64
:10233000FBDB491C8142F5DB704700002DE9F043CF
:102340000122304D89460746160289B0314628469B
:10235000FEF79BFC1420FFF7E3FF002280212846B4
:10236000FEF793FC1420FFF7DBFF4FF40078002208
:1023700041462846FEF789FC1420FFF7D1FF0024D0
:102380000FE000BFFEF781FCFA20FFF7C9FF002233
:1023900031462846FEF779FCFA20FFF7C1FF641C9E
:1023A000E4B2BC424FF0010231462846EAD3FEF7C0
:1023B0006CFC1420FFF7B4FF012280212846FEF7B1
:1023C00064FC1420FFF7ACFF012241462846FEF7CB
:1023D0005CFC1420FFF7A4FF012231462846FEF7DB
:1023E00054FC4846FEF7F2F802460B4606A1684642
:1023F000FFF7BEF96A4605210F20FFF72FF909B054
:10240000BDE8F08300100140252E32660000000078
:102410002DE9F0430122304D89460746160289B066
:1024200031462846FEF731FC1420FFF779FF0022E1
:1024300080212846FEF729FC1420FFF771FF4FF496
:102440000078012241462846FEF71FFC1420FFF7C2
:1024500067FF00240FE000BFFEF717FCFA20FFF72C
:102460005FFF002231462846FEF70FFCFA20FFF7F7
:1024700057FF641CE4B2BC424FF0010231462846CB
:10248000EAD3FEF702FC1420FFF74AFF0122802165
:102490002846FEF7FAFB1420FFF742FF01224146CF
:1024A0002846FEF7F2FB1420FFF73AFF01223146DF
:1024B0002846FEF7EAFB4846FEF788F802460B4638
:1024C00006A16846FFF754F96A4605210F20FFF779
:1024D000C5F809B0BDE8F08300100140252E326632
:1024E000000000002DE9F0410122374C074615029B
:1024F00029462046FEF7C9FB1420FFF711FF0022F2
:1025000080212046FEF7C1FB1420FFF709FF4FF49E
:102510000078002241462046FEF7B7FB1420FFF763
:10252000FFFE0026012229462046FEF7AEFBFA20D8
:10253000FFF7F6FE002229462046FEF7A6FBFA200A
:10254000FFF7EEFE761CF6B2642EEBD30122414675
:1025500026462046FEF799FB1420FFF7E1FE0024F3
:102560000FE000BFFEF791FBFA20FFF7D9FE002233
:1025700029463046FEF789FBFA20FFF7D1FE641C9E
:10258000E4B2BC424FF0010229463046EAD3FEF7DE
:102590007CFB1420FFF7C4FE012280213046FEF7A9
:1025A00074FB1420FFF7BCFE012241463046FEF7C3
:1025B0006CFB1420FFF7B4FE29463046BDE8F0411D
:1025C0000122FEF762BB0000001001400000000085
:1025D00000000000010203040607080900000000D3
:1025E00000000000002F000000000700070000149A
:1025F0007F147F1400242A7F2A12006264081323A8
:1026000000364955225000000503000000001C223E
:102610004100000041221C000014083E081400087C
:10262000083E0808000000A060000008080808082C
:10263000000060600000002010080402003E5149C4
:10264000453E0000427F4000004261514946002162
:1026500041454B31001814127F100027454545397C
:10266000003C4A49493000017109050300364949D7
:10267000493600064949291E000036360000000090
:1026800056360000000814224100001414141414DB
:102690000000412214080002015109060032495984
:1026A000513E007C1211127C007F49494936003EA0
:1026B00041414122007F4141221C007F494949415B
:1026C000007F09090901003E4149497A007F080855
:1026D000087F0000417F4100002040413F01007F12
:1026E00008142241007F40404040007F020C027FDE
:1026F000007F0408107F003E4141413E007F0909F0
:102700000906003E4151215E007F09192946004615
:10271000494949310001017F0101003F4040403FEC
:10272000001F2040201F003F4038403F0063140836
:102730001463000708700807006151494543000011
:102740007F41410000552A552A55000041417F0034
:102750000004020102040040404040400000010229
:102760000400002054545478007F48444438003812
:102770004444442000384444487F0038545454189A
:1027800000087E0901020018A4A4A47C007F0804AC
:1027900004780000447D4000004080847D00007F7C
:1027A000102844000000417F4000007C0418047899
:1027B000007C0804047800384444443800FC242495
:1027C00024180018242418FC007C0804040800487D
:1027D0005454542000043F444020003C4040207C9E
:1027E000001C2040201C003C4030403C004428108D
:1027F0002844001CA0A0A07C004464544C44141441
:10280000141414142428000800000020F002000012
:10281000A808000870290008F002002058040000F1
:10282000C81700080215000112010462100D63248C
:10283000F40A100BFE0222DA0680888888FF040260
:10284000108037000E11FF08100807007C40407F01
:102850004040FC57000F128060F807001098549316
:10286000101054983076F00DFF00808944462B12EA
:102870002A4680813F1009104C444444C4754606E2
:10288000F0054444540C5F000E124020100846E14D
:10289000504C43405060C0D73004101292010005E4
:1028A00014121202FEF9133F10010006133F0040FC
:1028B000807F40100688C43300408512FF83F240B9
:1028C0005F000C13020100FF8040300E10207F20BB
:1028D000053E0011DF000C10FC032020107F8888CB
:1028E0008482E0DF1005040404050443FF040105AD
:1028F000128124070000E00204182C0511BF140403
:10290000100C03022240010405107800010E1E0085
:102910000E1014A4442434AD6624940444A414403A
:10292000100C08090808090909FD09090B09021119
:102930000880267EE200071140300F0414649F10C7
:102940000640407E424203210407107E4060180585
:102950001060028C8416F2BD12F848051100040BB9
:10296000147E018047300F10270047C1000000008F
:0400000508000131BD
:00000001FF
